:020000020000FC
:1000000008E00EBF0FEF0DBF20982198259A289A7F
:10001000299A05E005BD03B1003051F003B101306C
:10002000D1F003B1023051F103B10330D1F1F3CF7C
:100030002D9A0E941F002D980E941F00ECCF10E007
:1000400016BD20E016B51A3FE9F710E016BD23955E
:100050002E33C1F708952D9A0E9432002D980E94E8
:100060003200D9CF30E036BD40E036B53A3FE9F74F
:1000700030E036BD43954931C1F708952D9A0E946D
:1000800045002D980E944500C6CF50E056BD60E067
:1000900056B55A3FE9F750E056BD63956230C1F757
:1000A00008952D9A0E9458002D980E945800B3CFB1
:1000B00070E076BD80E076B57A3FE9F770E076BD16
:0800C00083958130C1F708951A
:00000001FF
